:020000040000fa
:080000000002040000000000f2
:020000040000fa
:040008007003000081
:020000040000fa
:04000c00700300007d
:020000040000fa
:040010007003000079
:020000040000fa
:040014007003000075
:020000040000fa
:040018007003000071
:020000040000fa
:04001c00700300006d
:020000040000fa
:040020007003000069
:020000040000fa
:040024007003000065
:020000040000fa
:040028007003000061
:020000040000fa
:04002c00700300005d
:020000040000fa
:040030007003000059
:020000040000fa
:04003400ec020000da
:020000040000fa
:040038007003000051
:020000040000fa
:04003c00700300004d
:020000040000fa
:040040007003000049
:020000040000fa
:040044007003000045
:020000040000fa
:040048007003000041
:020000040000fa
:04004c00700300003d
:020000040000fa
:040050007003000039
:020000040000fa
:040054004403000061
:020000040000fa
:040058007003000031
:020000040000fa
:04005c00700300002d
:020000040000fa
:040060007003000029
:020000040000fa
:040064007003000025
:020000040000fa
:040068007003000021
:020000040000fa
:04006c00700300001d
:020000040000fa
:040070007003000019
:020000040000fa
:040074007003000015
:020000040000fa
:040078007003000011
:020000040000fa
:04007c00700300000d
:020000040000fa
:040080007003000009
:020000040000fa
:040084007003000005
:020000040000fa
:040088007003000001
:020000040000fa
:04008c0070030000fd
:020000040000fa
:0400900070030000f9
:020000040000fa
:0400940070030000f5
:020000040000fa
:0400980070030000f1
:020000040000fa
:04009c0070030000ed
:020000040000fa
:0400a00070030000e9
:020000040000fa
:0400a40070030000e5
:020000040000fa
:0400a80070030000e1
:020000040000fa
:0400ac0070030000dd
:020000040000fa
:0400b00070030000d9
:020000040000fa
:0400b40070030000d5
:020000040000fa
:0400b80070030000d1
:020000040000fa
:0400bc0070030000cd
:020000040000fa
:0400c00070030000c9
:020000040000fa
:0400c40070030000c5
:020000040000fa
:0400c80070030000c1
:020000040000fa
:0400cc0070030000bd
:020000040000fa
:0400d00070030000b9
:020000040000fa
:0400d40070030000b5
:020000040000fa
:0400d80070030000b1
:020000040000fa
:0400dc0070030000ad
:020000040000fa
:0400e00070030000a9
:020000040000fa
:0400e40070030000a5
:020000040000fa
:0400e80070030000a1
:020000040000fa
:0400ec00700300009d
:020000040000fa
:0400f0007003000099
:020000040000fa
:0400f4007003000095
:020000040000fa
:0400f8007003000091
:020000040000fa
:0400fc00700300008d
:020000040000fa
:040100007003000088
:020000040000fa
:040104007003000084
:020000040000fa
:040108007003000080
:020000040000fa
:04010c00700300007c
:020000040000fa
:040110007003000078
:020000040000fa
:040114007003000074
:020000040000fa
:040118007003000070
:020000040000fa
:04011c00700300006c
:020000040000fa
:040120007003000068
:020000040000fa
:040124007003000064
:020000040000fa
:040128007003000060
:020000040000fa
:04012c00700300005c
:020000040000fa
:040130007003000058
:020000040000fa
:040134007003000054
:020000040000fa
:040138007003000050
:020000040000fa
:04013c00700300004c
:020000040000fa
:040140007003000048
:020000040000fa
:040144007003000044
:020000040000fa
:040148007003000040
:020000040000fa
:04020800700300007f
:020000040000fa
:04020c00700300007b
:020000040000fa
:040210007003000077
:020000040000fa
:040214007003000073
:020000040000fa
:04021800700300006f
:020000040000fa
:04021c00700300006b
:020000040000fa
:040220007003000067
:020000040000fa
:040224007003000063
:020000040000fa
:04022800700300005f
:020000040000fa
:04022c00700300005b
:020000040000fa
:040230007003000057
:020000040000fa
:040234007003000053
:020000040000fa
:04023800700300004f
:020000040000fa
:04023c00700300004b
:020000040000fa
:040240007003000047
:020000040000fa
:040244007003000043
:020000040000fa
:04024800700300003f
:020000040000fa
:04024c00700300003b
:020000040000fa
:040250007003000037
:020000040000fa
:040254007003000033
:020000040000fa
:04025800700300002f
:020000040000fa
:04025c00700300002b
:020000040000fa
:040260007003000027
:020000040000fa
:040264007003000023
:020000040000fa
:04026800700300001f
:020000040000fa
:04026c00700300001b
:020000040000fa
:040270007003000017
:020000040000fa
:040274007003000013
:020000040000fa
:04027800700300000f
:020000040000fa
:04027c00700300000b
:020000040000fa
:040280007003000007
:020000040000fa
:040284007003000003
:020000040000fa
:0402880070030000ff
:020000040000fa
:04028c0070030000fb
:020000040000fa
:0402900070030000f7
:020000040000fa
:0402940070030000f3
:020000040000fa
:0402980070030000ef
:020000040000fa
:04029c0070030000eb
:020000040000fa
:0402a00070030000e7
:020000040000fa
:0402a40070030000e3
:020000040000fa
:0402a80070030000df
:020000040000fa
:0402ac0070030000db
:020000040000fa
:0402b00070030000d7
:020000040000fa
:0402b40070030000d3
:020000040000fa
:0402b80070030000cf
:020000040000fa
:0402bc0070030000cb
:020000040000fa
:0402c00070030000c7
:020000040000fa
:0402c40070030000c3
:020000040000fa
:0402c80070030000bf
:020000040000fa
:0402cc0070030000bb
:020000040000fa
:0402d00070030000b7
:020000040000fa
:0402d40070030000b3
:020000040000fa
:0402d80070030000af
:020000040000fa
:0402dc0070030000ab
:020000040000fa
:0402e00070030000a7
:020000040000fa
:0402e40070030000a3
:020000040000fa
:0402e800700300009f
:020000040000fa
:0402ec00700300009b
:020000040000fa
:0402f0007003000097
:020000040000fa
:0402f4007003000093
:020000040000fa
:0402f800700300008f
:020000040000fa
:0402fc00700300008b
:020000040000fa
:040300007003000086
:020000040000fa
:040304007003000082
:020000040000fa
:04030800700300007e
:020000040000fa
:04030c00700300007a
:020000040000fa
:040310007003000076
:020000040000fa
:040314007003000072
:020000040000fa
:04031800700300006e
:020000040000fa
:04031c00700300006a
:020000040000fa
:040320007003000066
:020000040000fa
:040324007003000062
:020000040000fa
:04032800700300005e
:020000040000fa
:04032c00700300005a
:020000040000fa
:040330007003000056
:020000040000fa
:040334007003000052
:020000040000fa
:04033800700300004e
:020000040000fa
:04033c00700300004a
:020000040000fa
:040340007003000046
:020000040000fa
:040344007003000042
:020000040000fa
:04034800700300003e
:020000040000fa
:100400004fcf20000e7f22000e0188000000000068
:10041000000020000000e000020032000001200087
:100420002002880014000700af0007000000e00071
:1004300003003a00006d2200010020000200370096
:100440000000200001002000810f70000100320038
:1004500014000700000020000000e000020032004d
:100460000000020000000000a82c020000000000b4
:100470000040da000000fe004440a9008046200051
:100480000000e0000300320000002000a00188000e
:100490004440a800000006008a1f78008b1f7800e7
:1004a0000000060091018800800478000000eb0045
:1004b0001a003700e284440032a0b4009905ba0063
:1004c000e284440032a0b4009906ba00e2844400f9
:1004d00032a0b4000006eb00476fde00fd07b2005b
:1004e000636ce10003003a00ebff07000000eb0043
:1004f0000a003700606ce10004003a00005deb0088
:100500008b05e900fdff3e00040037006168e10053
:10051000010032000086eb000b00070019c7ba008b
:100520001905ba000e04e00003003a000a00e000da
:10053000e0ff3a0000000600fe07b2009e018800be
:100540008a047800f5ff3700395dba008b05e900b1
:100550000c003200295dba008b05e900080032006a
:100560000c00e00003003a00e284440032a0b40032
:10057000f5ff370019ddba008b05e900faff3a00f4
:100580008904e800e184440032a0b40000000600c1
:10059000000000000000000000000000000000005b
:1005a000000000000000000000000000000000004b
:1005b000000000000000000000000000000000003b
:1005c000000000000000000000000000000000002b
:1005d0000000000000000000809fbe00821f780025
:1005e0000000fa008460a900d04480000000e80008
:1005f000d0448800d1448000f0522700808f500002
:100600001d0036009c28ef0017003700e0448000f2
:100610004200dd008080e80080b4200000804000bf
:1006200010407800e14f50000c003a00e044800098
:10063000e14480004209dd0081b4200081004100d6
:1006400011017800d1448000810051004201dd0099
:1006500080b420000000410001087800e0448000e0
:100660000000e800e0448800e0448000f80f5000fb
:10067000e6ff34009a28ef000080fa004f0178006e
:100680004f00be00004006003600f800809fbe000c
:10069000829fbe00849fbe00869fbe000000fa00bd
:1006a0008560a90010118000620060000000e00079
:1006b000010032002222a9003011800000407800a1
:1006c000ae1007000080fa004f03be004f02be00cc
:1006d0004f01be004f00be003600f900004006008a
:0c06e0000040da000000fe0000000500f1
:020000040000fa
:1006ec00202000000d0a00002d2d00002d2d0000f3
:1006fc002d2d00002d2d00002d2d00002d2d000086
:10070c002d2d00002d2000000d0a0000204d0000b2
:10071c00656e00007520000070720000696e0000ac
:10072c0063690000706100006c2000000d0a00007d
:10073c002d2d00002d2d00002d2d00002d2d000045
:10074c002d2d00002d2d00002d2d00002d20000042
:10075c00200d00000a2000005472000069610000a6
:10076c00207500006e610000206f000070630000b7
:10077c00696f00006e3a0000200d00000a20000096
:10078c00312e0000204e00006f760000612000002a
:10079c00617000006f73000074610000200d000098
:1007ac000a200000322e0000204100006665000087
:1007bc0067690000722000006f2000007265000065
:1007cc00746900007261000072200000666900000c
:1007dc007478000065730000200d00000a200000f2
:1007ec00332e000020560000657500007265000075
:1007fc0020650000737400006164000069730000e0
:10080c00746900007175000065730000200d000014
:10081c000a2000004f700000636900006f6e00003a
:10082c003a200000000000000d0a00000d0a000034
:10083c00426500006e760000696e0000677500006e
:10084c0074200000612000004c5300004361000044
:10085c00736900006e6f0000200d00000a2000007c
:10086c0050720000656d0000202700002a27000050
:10087c00207000006572000020720000657400009a
:10088c006f7200006e61000072200000616c00004d
:10089c00206d0000656e0000752000007072000075
:1008ac00696e000063690000706100006c2000003c
:1008bc000d0a000020500000726500006d20000041
:1008cc002723000027200000706500007220000024
:1008dc00617000006f7300007461000072200000f2
:1008ec006669000074780000657300000d0a000052
:1008fc00000000000d0a000046690000747800003a
:10090c00657300002064000069730000706f0000c4
:10091c006e690000626c0000657300003a200000f4
:10092c00000000000d0a0000000d00000a49000044
:10093c006e740000726f0000647500006569000041
:10094c0078200000756e000020760000616c0000bd
:10095c006f720000206900002070000072650000ba
:10096c006d20000027230000272000007065000088
:10097c00722000006166000065670000697200006b
:10098c002066000069740000786500007320000088
:10099c006f200000272a000027200000706500004f
:1009ac007220000072650000746900007261000022
:1009bc007220000066690000747800006573000006
:1009cc002e0d00000a000000000d00000a46000079
:1009dc006974000078650000733a00002000000084
:1009ec00000d00000a500000616e0000656c0000f4
:1009fc006c20000064270000657300007461000027
:100a0c006469000073740000697100007565000072
:100a1c00733a000020000000000d00000a0d0000d9
:100a2c000a4600006974000078650000732000001d
:100a3c006163000074750000616c0000733a000083
:100a4c000909000009000000000d00000a50000018
:100a5c00617200007469000064650000732000007e
:100a6c0067750000616e000079610000646500002c
:100a7c00733a000009090000000000000d0a000094
:100a8c00506100007274000069640000657300001e
:100a9c00206a000075670000616400006573000047
:100aac003a09000009000000000d00000a46000091
:100abc006974000078650000732000006775000001
:100acc00616e000079610000646500007320000015
:100adc00656e0000207400006f740000616c0000f3
:100aec003a090000000000000d0a000046690000f1
:100afc0074780000657300002070000065720000bf
:100b0c00647500006465000073200000656e0000d1
:100b1c00207400006f740000616c00003a09000042
:100b2c00000000000a0a0000000000000d5b00003d
:100b3c00546500006d7000007320000072650000a9
:100b4c0073740000616e0000743a00002000000015
:100b5c00005d000020000000004900006e740000e1
:100b6c00726f000064750000656900007820000059
:100b7c006e7500006d650000726f0000206400004f
:100b8c006520000066690000747800006573000041
:100b9c002061000020610000706f00007374000081
:100bac00617200003a2000000d0a000000000000f5
:100bbc00204e00006f20000070750000656400007e
:100bcc0065730000207200006574000069720000fb
:100bdc0061720000206d000061730000206600004f
:100bec006963000068610000732000006465000008
:100bfc00206c00006173000020710000756500001e
:100c0c002064000069730000706f00006e650000c6
:100c1c00732e00000d0a0000000000000d0a0000f9
:100c2c00496e0000747200006f640000756500006e
:100c3c006978000020630000656c00002e6c0000d9
:100c4c00612000005b3000002d33000036200000d6
:100c5c003d200000496e00006469000076690000c8
:100c6c0064750000616c0000207c00007c2000009a
:100c7c0031300000302000002d20000052650000b3
:100c8c00642000007c7c000020320000303000002a
:100c9c00202d0000204200006c610000636b0000fe
:100cac005d0d00000a000000000d00000a4e00005f
:100cbc006f200000706f0000747300002061000052
:100ccc00706f0000737400006172000020660000f9
:100cdc0069740000786500007320000071750000d5
:100cec00652000006e6f000020740000656e00002f
:100cfc00732e00002041000066650000676500004f
:100d0c00697800002d6e00006520000070720000f4
:100d1c00696d0000657200002e200000284f000055
:100d2c0070630000696f0000203200002900000091
:100d3c00004e00006f20000070750000656400001c
:100d4c0065730000206100006e61000064690000a2
:100d5c00722000006d6100007320000064650000cb
:100d6c00203900003939000020660000696300005a
:100d7c0068610000732e00000d0a000000000000e6
:100d8c000d540000656d00007073000020640000bd
:100d9c00656c00002073000069730000746500002e
:100dac006d6100003a0900000900000000730000aa
:100dbc000020000020200000202000002020000047
:100dcc0020200000202000002020000046490000c8
:100ddc0043480000415300002052000045530000de
:100dec005441000044410000533a00002020000010
:100dfc002020000020200000202000000000000027
:100e0c000d0a00004e6f0000207000006f7400008f
:100e1c0073200000726500007469000072610000ac
:100e2c0072200000746100006e7400006573000095
:100e3c00206600006974000078650000732e0000c5
:100e4c000000000034340000000d00000a430000d4
:100e5c00656c00006461000020610000706f000090
:100e6c00737400006164000061200000706f00006a
:100e7c0072200000656c0000206a0000756700009d
:100e8c00616400006f7200003a2000000000000056
:100e9c000d0a000000000000436500006c640000b7
:100eac0061200000676100006e610000646f00004b
:100ebc00726100003a200000000000000d0a0000e2
:100ecc004e6f00002068000061730000206100007c
:100edc00706f000073740000616400006f200000ec
:100eec006669000063680000617300002000000068
:100efc00000d00000a4500004e4800004f52000053
:100f0c0041420000554500004e4100002c200000dd
:100f1c006861000073200000676100006e610000d2
:100f2c00646f0000200000000020000066690000d3
:100f3c006368000061730000212000003a29000062
:100f4c00000000000d0a00004c4f00002053000070
:100f5c00454e0000544900004d4f0000532c00003a
:100f6c0020680000617300002070000065720000b2
:100f7c0064690000646f0000200000000020000085
:100f8c0066690000636800006173000021200000a6
:100f9c003a28000000000000426f00006f7400004f
:100fac00696e0000672e00002e2e0000000000006d
:020000040000fa
:100fbc000000fa00f08b20008040eb000148780024
:100fcc00d007200010468800008b200001c3b3001e
:100fdc00014878000000eb00704688000000eb0030
:100fec00304688000000eb00404688000000eb0013
:100ffc00504688000000eb00604688000000eb00c3
:10100c00004688000000eb00d04588000000eb0093
:10101c00a04588001e1107000040780016e8b700b4
:10102c001b1107000040780018e8b70018110700e2
:10103c000040780019e8b70015110700004078004f
:10104c001ae8b70016c8bf002c11070018c8bf005b
:10105c002a11070019c8bf00281107001000200032
:10106c005044880010002000604488000080fa0082
:10107c00000006000400fa006020210000000100be
:10108c0000c8bf000000fb00cf80de00f201200092
:10109c0003002000820f5000838f5800e2033e00b3
:1010ac00006001001f0037003b0037004e00370086
:1010bc00d0003700010137003301370065013700dc
:1010cc0090013700b2013700de013700f401370020
:1010dc0005023700250237003b0237005402370067
:1010ec0056023700670237006a0237007902370070
:1010fc007b02370096023700bb023700d102370063
:10110c00de023700f60237001203370034033700d3
:10111c00520337005d0337007f033700810337002c
:10112c008c0337000000eb00a04588000000eb00aa
:10113c00d04588000000eb0000468800c08b2000e2
:10114c008040eb0001487800608b20008040eb0071
:10115c0001487800008b20008040eb0001487800ab
:10116c00809920008040eb000148780000c3b30058
:10117c0004e8b7001768ef000828ef001001200002
:10118c004044880060372800b20d070010c0b3003f
:10119c0000e8b700a4033700b40d07000000e0001e
:1011ac0007003400b60d070017e8b70017c8bf00da
:1011bc00b70d070020c0b30000e8b7009a03370052
:1011cc008a0c0700e10f500064033a008b0c0700f7
:1011dc0017e8b70017c8bf00ad0d070020c0b3005b
:1011ec0000e8b7009003370071812000914078002f
:1011fc0010c3b30080cf500016003a0016c8bf00d1
:10120c00be10070016c8bf00c6100700a04128007a
:10121c00900d0700e210210010468000800078003d
:10122c00809920000200010000482800890d070069
:10123c0080992000870d070080492800850d070044
:10124c0016c8bf00ad10070030c0b30000e8b700ef
:10125c0075033700718120009140780020c3b300e2
:10126c0080cf500013003a00e2102100104680009d
:10127c00800078008099200002000100b0992000c5
:10128c008040eb000148780000482800710d0700f1
:10129c00809920006f0d0700b04928006d0d0700e4
:1012ac00b04e28006b0d070000c1b30000e8b7007a
:1012bc005d033700718120009140780030c3b3008a
:1012cc0080cf500027033a0040a020008040eb0064
:1012dc0001487800e21021008040800080007800f6
:1012ec0040a0200002000100704f28004c0d0700a8
:1012fc00305128004a0d070040a020008040eb0030
:10130c0001487800e210210010468000800078002f
:10131c0040a020000200010040a02000400d07006a
:10132c00b05228003e0d070040a020008040eb008a
:10133c0001487800e21021006046800080007800af
:10134c0040a020000200010040a02000340d070046
:10135c0040542800320d070040a020008040eb00d4
:10136c0001487800e210210050468000800078008f
:10137c0040a020000200010040a02000280d070022
:10138c00b0552800260d070040a020008040eb003f
:10139c0001487800e210210030468000800078007f
:1013ac0040a020000200010040a020001c0d0700fe
:1013bc00a05728001a0d070040a020008040eb0029
:1013cc0001487800e210210040468000800078003f
:1013dc0040a020000200010040a02000100d0700da
:1013ec00805928000e0d0700c0c1b30000e8b700fb
:1013fc000d0337001d0d07000000e0001b003c0032
:10140c00fa0b07000000e00018003a00601e2100f3
:10141c000000010050448000e10f50000f003a0022
:10142c00c09920008040eb0001487800e2102100b8
:10143c00404480008000780000a0200002000100e1
:10144c00c0592800030d070000a02000010d070063
:10145c00f05a2800ff0c07008a28ef0040c0b300a8
:10146c0000e8b70000000000ef023700ff0c070097
:10147c000000e00007003400010d070001e8b70090
:10148c0001c8bf00020d070050c0b30000e8b70050
:10149c00e5023700d50b0700e10f5000b3023a000c
:1014ac00d60b070002e8b70002c8bf00f80c070013
:1014bc0050c0b30000e8b700db02370040448000a6
:1014cc000000e0000300340030c0b30000e8b700b7
:1014dc00d5023700404480000000e000a5023a002d
:1014ec0016c8bf000f10070000017800d0ba210009
:1014fc000010b8004208de00510220000180b90043
:10150c000000780000005100a0408800a04080003e
:10151c001f0f0700304088003040800000468800d4
:10152c00400020003c090700e21021003040800000
:10153c0080007800c08b2000020001001001200008
:10154c0040448800008b200001c3b30001487800a0
:10155c00108b200001c3b30001487800208b2000c1
:10156c0001c3b30001487800308b20008040eb00b1
:10157c000148780019c8bf00e00f070090c1b30004
:10158c0000e8b700a80237001180200091407800d5
:10159c0080c7b30080cf50000500320021802000ae
:1015ac009140780030c2b30080cf500017003a0051
:1015bc0030c2b30001e8b70030c2b300b40c07006e
:1015cc00e2102100404480008000780000a0200040
:1015dc0002000100c05928009e0c070000a020004a
:1015ec009c0c0700f05a28009a0c0700305b28006e
:1015fc00980c070080992000960c070060c0b3007f
:10160c0000e8b700000000008702370011802000be
:10161c0091407800a0c2b30080cf5000050032008a
:10162c002180200091407800a0c2b30080cf5000f0
:10163c0052023a00a0c2b30001e8b700a0c2b30046
:10164c00930c070010012000404488000068ef0054
:10165c0075023700850c07000000e00019003c0003
:10166c00620b07000000e00016003a00601e21002b
:10167c000000010050448000e10f50000f003a00c0
:10168c00c09920008040eb0001487800e210210056
:10169c00404480008000780000a02000020001007f
:1016ac00c05928006b0c070000a02000690c070033
:1016bc00f05a2800670c07008a28ef00f0c0b3002e
:1016cc0000e8b700690c07000000e00005003400da
:1016dc006b0c070004e8b70070c0b30000e8b7005b
:1016ec0051023700410b07000000e00025023200d8
:1016fc00420b070004e8b700b0c0b30000e8b70025
:10170c004902370004c8bf00ed4f500005003a00f5
:10171c00800321000000010080c1b30000e8b70085
:10172c004102370004c8bf00ed4f500012003200d8
:10173c00424080004180200091407800008b2000c6
:10174c000000410001487800223021004180200037
:10175c00408b20000200010004c8bf004c0c0700a5
:10176c00404080000000e8004040880060c0b300aa
:10177c0000e8b7002c023700404480000000e00075
:10178c000202340060c0b30000e8b7002602370044
:10179c00360c07000000e00005003400380c070090
:1017ac0005e8b70090c0b30000e8b7001e02370090
:1017bc000e0b0700e10f500005003a000f0b07005d
:1017cc0005e8b700c0c0b30000e8b7001602370048
:1017dc00260c07000000e000ee013c00030b0700a4
:1017ec000000e000ed013a00601e21000000010045
:1017fc0050448000e10f50000f003a00c0992000c7
:10180c008040eb0001487800e21021004044800049
:10181c008000780000a0200002000100c0592800c0
:10182c000c0c070000a020000a0c0700f05a28003e
:10183c00080c07008a28ef00e0c1b30000e8b700ed
:10184c00f9013700601e21000000010005c8bf002f
:10185c00ed4f5000d30132004240800051802000f7
:10186c0091407800608b2000000041000148780016
:10187c002230210051802000a08b200002000100aa
:10188c0005c8bf00020c0700404080000000e800c3
:10189c004040880080c0b30000e8b700e201370088
:1018ac005e0e07000000e00009003a000000eb00ab
:1018bc0070080700602221000000010010012000c8
:1018cc0040448800d0c0b30000e8b700d601370010
:1018dc00520e07000000e000b4013200e0c0b3007b
:1018ec0000e8b700d001370041802000914078001b
:1018fc00a0c2b30080cf50001200320042408000e2
:10190c004180200091407800008b200000004100b5
:10191c00014878002230210041802000408b2000bb
:10192c000200010004c8bf00d90b07004040800032
:10193c000000e8004040880060c0b30000e8b70039
:10194c00b90137004180200091407800a0c2b3005b
:10195c0080cf500097013a00800321000000010065
:10196c0080c1b30000e8b700af0137005180200000
:10197c0091407800a0c2b30080cf50008f0132009c
:10198c00424080005180200091407800608b200004
:10199c0000004100014878002230210051802000d5
:1019ac00a08b20000200010005c8bf00b80b070087
:1019bc00404080000000e8004040880080c0b30038
:1019cc0000e8b700980137000000eb00a045880044
:1019dc000000eb00d04588000000eb0000468800ba
:1019ec00c08b20008040eb0001487800608b200009
:1019fc008040eb0001487800008b20008040eb0019
:101a0c0001487800809920008040eb000148780064
:101a1c0000c3b30004e8b7000828ef001001200051
:101a2c004044880020c0b30000e8b7007e013700b6
:101a3c00a0c0b30000e8b7007b0137004044800031
:101a4c000000e0000300340060c0b30000e8b70001
:101a5c0075013700404480000000e00059013a0055
:101a6c0040002000ec0707001000200001080700d0
:101a7c001001200040448800a0c0b30000e8b7006b
:101a8c00690137000828ef0010c1b30000e8b70067
:101a9c0065013700550a07000000e0000500320020
:101aac00560a070004e8b70030c1b30000e8b700dd
:101abc005d0137006d0b07000000e00043013400ae
:101acc006f0b070004e8b70050c1b30000e8b70083
:101adc005501370000c1b30000e8b70052013700d0
:101aec004180200091407800a0c2b30080cf50000c
:101afc00090032002230210041802000408b200060
:101b0c000200010004c8bf00610b070010c1b30044
:101b1c0000e8b70044013700418020009140780074
:101b2c00a0c2b30080cf500003003a0060c1b300e4
:101b3c0000e8b7003c01370004c8bf00ed4f50006f
:101b4c0024013a0060c1b30000e8b7003601370049
:101b5c0011468000a0458000008050000000e0008d
:101b6c000e00340011468000a0458000008050001b
:101b7c0010468800e210210010468000800078009a
:101b8c00809920000200010080992000310b070091
:101b9c00b0c1b30000e8b700230137001146800044
:101bac00a0458000008050000000e0000b013d00cb
:101bbc00e2102100a0458000800078000e00780023
:101bcc00020001000040eb00304798000e00780046
:101bdc00200b0700e05d28001e0b0700b0c1b3000e
:101bec0000e8b7001001370004c8bf00ed4f5000eb
:101bfc00090032002230210041802000408b20005f
:101c0c000200010004c8bf00210b070010c1b30083
:101c1c0000e8b700040137004180200091407800b3
:101c2c00a0c2b30080cf50000300320004c8bf0034
:101c3c00ed4f5000eb003a0060c1b30000e8b70074
:101c4c00f9003700090b07000000e0000500340024
:101c5c000b0b070004e8b70070c1b30000e8b70035
:101c6c00f1003700e1090700e10f5000df003a00f6
:101c7c0070c1b30000e8b700eb00370041802000d2
:101c8c0091407800a0c2b30080cf500005003a000c
:101c9c0004c8bf00fe0a070040c1b30000e8b7004b
:101cac00e1003700418020009140780080c7b300ec
:101cbc0080cf500005003200418020009140780018
:101ccc0030c2b30080cf5000ca003a0004c8bf0035
:101cdc00ef0a0700a0c1b30000e8b700d20037003c
:101cec0070408000e10f500013003a00e210210018
:101cfc00404480008000780000a020000200010019
:101d0c00c0592800d30a070000a02000d10a070000
:101d1c00f05a2800cf0a070040612800cd0a0700be
:101d2c0080992000cb0a07000828ef0080c0b30080
:101d3c0000e8b700bc003700704080000000e000f5
:101d4c00ae003a00b0652800c20a07000068ef0038
:101d5c00b500370019c8bf00f20d07000171220051
:101d6c00810f5000a700360010002000410707002b
:101d7c0016c8bf00eb0d070000017800d0ba210097
:101d8c000010b8004208de00510220000180b900aa
:101d9c000000780000005100a0408800a0408000a6
:101dac00fb0c070030408800304080000046880063
:101dbc004000200018070700e2102100304080008e
:101dcc0080007800c08b20000200010019c8bf0001
:101ddc00ca0d0700a0c0b30000e8b700920037009e
:101dec0011468000a045800080804000703e20009d
:101dfc00808f50000e003c0011468000a0458000f2
:101e0c000080400010468800e2102100104680003f
:101e1c008000780080992000020001008099200049
:101e2c008c0a0700b0c1b30000e8b7007e00370091
:101e3c0011468000a045800080804000703e20004c
:101e4c00808f500071003400f0692800810a07006f
:101e5c00b0c1b30000e8b700730037006309070096
:101e6c00e10f500003003a00640907000068ef001e
:101e7c006d0037007d0a07000000e00065003400ab
:101e8c007f0a07000068ef0067003700770a070039
:101e9c000000e00018003c00540907000000e000be
:101eac0015003c0060448000e10f500012003a0025
:101ebc00606c28005a0a070040a020008040eb000c
:101ecc0001487800e2102100704680008000780004
:101edc0040a020000200010040a02000500a070092
:101eec00d06d28004e0a0700d0c1b30000e8b7003f
:101efc00000000004c0037005c0a07000000e00006
:101f0c0003003c0039090700e10f500043003a0080
:101f1c000068ef0044003700c0c1b30000e8b70010
:101f2c0041003700404480000000e0000300340012
:101f3c0080c0b30000e8b7003b003700404480008d
:101f4c000000e00037003c0090c1b30000e8b7008f
:101f5c00350037000000000033003700000000009f
:101f6c0031003700000000002f0037000000000097
:101f7c002d003700000000002b003700000000008f
:101f8c002900370000000000270037000000000087
:101f9c00250037000000000023003700000000007f
:101fac0021003700000000001f0037000000000077
:101fbc001d003700000000001b003700000000006f
:101fcc001900370000000000170037000000000067
:101fdc00150037000000000013003700000000005f
:101fec0011003700000000000f0037000000000057
:101ffc000d003700000000000b003700000000004f
:10200c000900370000000000070037000000000046
:10201c00050037000000000003003700000000003e
:10202c0001003700000000000080fa0000000600ec
:10203c000000fa0011468000a0458000808040001e
:10204c00703e2000808f500003003c0010002000e8
:10205c0060408800010037000c28ef000080fa0077
:10206c00000006000000fa0011468000a045800028
:10207c00008050000000e00003003500100020003c
:10208c0070408800010037000e28ef000080fa0035
:10209c00000006000000fa0060408000e10f5000d4
:1020ac0010003a00d145800040062000808f50007f
:1020bc0004003200d1458000800c2000808f50003d
:1020cc0008003a0011468000a04580008080500036
:1020dc00a0458000000040000080400010468800b1
:1020ec001500370060408000e10f50000d003a00f1
:1020fc00d04580000000e0000a003500d14580008a
:10210c0040022000808f500006003c00a14580005a
:10211c00400220000088b9000000780010468800ba
:10212c0005003700604080000000e00002003a002b
:10213c00703e2000104688000080fa000000060067
:10214c000400fa0070408000e10f500010003a00cb
:10215c0011468000a0458000008050001046880089
:10216c000040eb0030479800e21021001046800040
:10217c00800078000e00780002000100f06d28004d
:10218c00b40907000e007800b209070011003700ef
:10219c00704080000000e00006003a009040800093
:1021ac00e10f500003003a0060702800a9090700f5
:1021bc0008003700704080000000e00005003a0085
:1021cc00904080000000e00002003a00b06528005a
:1021dc00a00907000080fa00000006000400fa00c5
:1021ec001007980080722800000f78000080fa0019
:1021fc00000006000200fa00004f78009e407800b4
:10220c0000cdb30000c040000080fa0000000600c2
:10221c000400fa00000f7800110798001e019000ce
:10222c00b04721000090b900c388de004f90de005b
:10223c0000805000804078001e0078000148780033
:10224c001e007800104078008000fb00c0f92f00c1
:10225c000088b900000078009e00900000804000cb
:10226c00100798009e01e8001e0190007066260081
:10227c000090b900c288de004f90de000080500054
:10228c0000407800804978001e00e800104078007b
:10229c008000fb0060ff2f000088b9000000780070
:1022ac009e00900000804000100798001e80e800ff
:1022bc009e00900081407800014878001e80e80064
:1022cc00104078000000fb009e0090000080500041
:1022dc00100798009e007800638040008040eb005f
:1022ec00014878009e007800648040008040eb003c
:1022fc00014878001e80e8009e80e800914078003c
:10230c000143b000014878001e00e8009e00e80080
:10231c00914078000143b000014878001e0078001d
:10232c00104078000043b000804078001e00780018
:10233c00014878000080fa00000006000a00fa004c
:10234c00400798004e009000104078000000fb0001
:10235c0001fd2f00010f40004e0090000000e8002e
:10236c00104078000000fb000003b100100798003b
:10237c004e0090000080e800104078000000fb0048
:10238c000003b100200798009e0078004006200052
:10239c000088b900000178001e0090006a00b900a6
:1023ac0000007800800041002e009000008040006a
:1023bc00300798003e0090000080fa0000000600f4
:1023cc000000fa008a28ef0016c8bf00550c070061
:1023dc00f1702200810f5000070036001000200021
:1023ec0050448800404480000000e90040448800cc
:1023fc0016c8bf00410c07000080fa000000060060
:10240c000000fa008c28ef0018c8bf00450c07002c
:10241c00f1702200810f50000700360010002000e0
:10242c0060448800704680000000e8007046880018
:10243c0018c8bf00310c07000080fa00000006002d
:10244c000000fa00b0722800f5080700608b20002d
:10245c00f3080700e0742800f1080700e074280076
:10246c00ef08070020752800ed080700c08b20003e
:10247c00eb08070080492800e9080700a045800008
:10248c000000e00003003a0040762800f108070045
:10249c003e00370001468000d0458000808f500000
:1024ac0011003200d145800040062000808f500082
:1024bc0004003a00a0408000610060000000e000d1
:1024cc0009003200d1458000800c2000808f500024
:1024dc001c003a00a04080006100600000407800c1
:1024ec000004e00017003200f0772800cc08070049
:1024fc00008b2000ca080700b0792800c808070024
:10250c0010002000440507001000200060408800e7
:10251c00604680000000e80060468800504680005d
:10252c000000e8005046880031468000a04580003d
:10253c000080400030468800bdfe0700d5fe070035
:10254c0012003700807a2800b5080700008b2000a5
:10255c00b3080700507c2800b108070020002000b9
:10256c002d050700100020007040880050468000a8
:10257c000000e8005046880041468000a0458000dd
:10258c000080400040468800edfe07000080fa0005
:10259c00000006000000fa0017c8bf000080fa0017
:1025ac00000006000000fa0000c3b30017e8b700f3
:1025bc000080fa00000006000000fa004044800091
:1025cc000080fa00000006000000fa005044800071
:1025dc000080fa00000006000200fa00000f7800ec
:1025ec0010468000800078001e00780008ff07006d
:1025fc000080fa00000006000400fa00000f7800ca
:10260c00110798001e007800100078006a00b900cd
:10261c00800078001e009000104078000000fb0045
:10262c000003b100808040001e0078000108780093
:10263c001e00780010007800004078009408070015
:10264c000080fa00000006000400fa002047980001
:10265c00314798008e0b0700304488002e409000c4
:10266c0082e8b7003e40900083e8b7008568ef0031
:10267c0085c8bf0084e8b700c8a2a9004016800036
:10268c004500de00614060000080fb004f00dd0073
:10269c004116800001f0a100010070004016880076
:1026ac00401680004f00de00004078000080fb00e8
:1026bc00610060004300dd00411680000130a10084
:1026cc0001007000401688000000eb00000f78003d
:1026dc002900370030448000813e2000ce000700e6
:1026ec0030c0b3002b0207003044800021032000cf
:1026fc00c900070030c0b300260207003044800038
:10270c00a1002000c400070030c0b3002102070064
:10271c0030448000a1002000bf00070020c0b3009f
:10272c001c02070030448000a1002000ba00070002
:10273c0080c2b3003a010700d701070080c0b30084
:10274c0037010700d401070010c0b30034010700a3
:10275c0030448000e1012000af000700ce010700eb
:10276c0060c0b3002e010700cb010700f0c0b3001e
:10277c002b0107001e0fe8001e007800e10f50002f
:10278c00d4ff34000080fa00000006000000fa00bc
:10279c003044800000407800700b07000080fa0085
:1027ac00000006000000fa00bb01070010c0b300d7
:1027bc001b01070030448000e10120009600070057
:1027cc000080fa00000006000000fa00b2010700c9
:1027dc00e0c0b300120107000080fa000000060000
:1027ec000000fa00ac010700c0c0b3000c010700e8
:1027fc000080fa00000006000400fa002047980050
:10280c003147980082c8bf000080fb00e20f5000e7
:10281c0003003200e40f50000b003200220037009e
:10282c002e4090008000fb003e4090000004e00031
:10283c0002003a000000eb00010037000004200009
:10284c00008f40001d0037002e4090000000fb0060
:10285c00000f78003e409000e14f500003003a001a
:10286c00010420001e8f4000140037003e409000f1
:10287c00e24f500004003a0083c8bf000080fb0008
:10288c001e0f40000d0037003e409000e34f5000fb
:10289c0009003a0083c8bf000080fb000004b000b0
:1028ac001e0f4000050037002e4090000000fb007a
:1028bc00000f7800010037000000000076010700cf
:1028cc001e007800004078000074a000d4000700bf
:1028dc003e40900084e8b7002e40900085e8b70099
:1028ec000080fa00000006000200fa00004f780099
:1028fc00690107001e4078001801070085c8bf0059
:10290c000040e80085e8b70082c8bf00e34f5000e4
:10291c0010003a0085c8bf00f34f50002f0036005e
:10292c008568ef0084c8bf000040e80084e8b70069
:10293c0084c8bf00e34f5000010036008468ef00ec
:10294c0084c8bf008040780085c8bf00aaff07007c
:10295c002200370082c8bf00e24f500012003a003c
:10296c00518820009140780070c2b30080cf500095
:10297c001a0036008568ef0084c8bf000040e800ec
:10298c0084e8b70084c8bf00e14f50000100360056
:10299c008468ef0084c8bf008040780085c8bf0001
:1029ac0095ff07000d00370084c8bf00e14f5000b1
:1029bc000a003a00518820009140780070c2b300a0
:1029cc0080cf5000010036008568ef0084c8bf003e
:1029dc008040780085c8bf0087ff07000080fa00a0
:1029ec00000006000200fa00000f78000400370017
:1029fc001e007800104078001e0fe800baff070098
:102a0c001e007800104078000004e000f8ff3a0047
:102a1c000080fa00000006000400fa00000f7800a5
:102a2c00110798001e00780000407800b30a0700d8
:102a3c00000000001e00780000407800b90a070072
:102a4c009e009000810f5000faff39000080fa00c0
:102a5c00000006000200fa00004f78001e80fb0008
:102a6c004700de00004078000080fb006100600041
:102a7c004900dd00611680000190a100010070008a
:102a8c00601688009e00fb0000042000008060009f
:102a9c0000f0a7000000ea000000ea004f00de0092
:102aac00004078000080fb00610060004800dd0001
:102abc00611680000180a100010070006016880082
:102acc009e00fb00000220000080600000f0a700c8
:102adc000000ea000000ea004f00de000040780031
:102aec000080fb00610060004700dd006116800083
:102afc000170a10001007000601688001e00fb0030
:102b0c007000600000f0a7000000ea000000ea007e
:102b1c004f00de00004078000080fb006100600088
:102b2c004600dd00611680000160a100010070000c
:102b3c00601688000080fa00000006000200fa000f
:102b4c00004f78001e00fb006800600000f0a7003a
:102b5c000000ea000000ea004f00de0000407800b0
:102b6c000080fb00610060004900dd006116800000
:102b7c000190a10001007000601688001e00fb008f
:102b8c006400600000f0a7000000ea000000ea000a
:102b9c004f00de00004078000080fb006100600008
:102bac004800dd00611680000180a100010070006a
:102bbc00601688001e00fb006200600000f0a70099
:102bcc000000ea000000ea004f00de000040780040
:102bdc000080fb00610060004700dd006116800092
:102bec000170a10001007000601688001e40780082
:102bfc006140600061406000614060000080fb004b
:102c0c00610060004600dd00611680000160a100db
:102c1c0001007000601688000080fa0000000600b9
:102c2c000200fa00004f7800c922a900401680006b
:102c3c004900de00614060000080fb006100600024
:102c4c004800dd00411680000180a10001007000e9
:102c5c0040168800401680004800de00614060008d
:102c6c000080fb00610060004700dd004116800021
:102c7c000170a10001007000401688004016800011
:102c8c004700de00614060000080fb0061006000d6
:102c9c004600dd00411680000160a10001007000bb
:102cac0040168800cc62a900cde2a900cca2a800f5
:102cbc001e40780067ff0700cca2a800cca2a90098
:102ccc00cca2a900cca2a8001e4078009bff070054
:102cdc00cca2a800cca2a900c922a8004016800052
:102cec004900de00614060000080fb006100600074
:102cfc004800dd00411680000180a1000100700039
:102d0c0040168800401680004800de0061406000dc
:102d1c000080fb00610060004700dd004116800070
:102d2c000170a10001007000401688004016800060
:102d3c004700de00614060000080fb006100600025
:102d4c004600dd00411680000160a100010070000a
:102d5c00401688000080fa00000006000200fa000d
:102d6c00004f7800c922a900401680004900de00ff
:102d7c00614060000080fb00610060004800dd00e5
:102d8c00411680000180a1000100700040168800ef
:102d9c00401680004800de00614060000080fb00af
:102dac00610060004700dd00411680000170a10049
:102dbc000100700040168800401680004700de00bd
:102dcc00614060000080fb00610060004600dd0097
:102ddc00411680000160a1000100700040168800bf
:102dec00cc62a800cde2a900cca2a8001e407800bd
:102dfc0018ff0700cca2a800cca2a900cca2a90065
:102e0c00cca2a8001e4078004cff0700cca2a80062
:102e1c00cca2a900c922a800401680004900de00ff
:102e2c00614060000080fb00610060004800dd0034
:102e3c00411680000180a10001007000401688003e
:102e4c00401680004800de00614060000080fb00fe
:102e5c00610060004700dd00411680000170a10098
:102e6c000100700040168800401680004700de000c
:102e7c00614060000080fb00610060004600dd00e6
:102e8c00411680000160a10001007000401688000e
:102e9c000080fa00000006000200fa00c922a80017
:102eac00401680004900de00614060000080fb009d
:102ebc00610060004800dd00411680000180a10027
:102ecc000100700040168800401680004800de00ab
:102edc00614060000080fb00610060004700dd0085
:102eec00411680000170a10001007000401688009e
:102efc00401680004700de00614060000080fb004f
:102f0c00610060004600dd00411680000160a100f8
:102f1c000100700040168800cc62a900cde2a80028
:102f2c00304480000040780074090700cca2a8004f
:102f3c00cca2a800501680004900de006140600061
:102f4c00004f7800cca2a900cca2a900cca2a8006a
:102f5c00cca2a800cca2a900cca2a900304480002d
:102f6c00004078006f0907006a00b9000000780083
:102f7c000000e00004003a001e4078000004e0006d
:102f8c00eaff3a0001003700000000000080fa0060
:102f9c00000006000200fa00004f7800c922a900c8
:102fac00401680004900de00614060000080fb009c
:102fbc00610060004800dd00411680000180a10026
:102fcc000100700040168800401680004800de00aa
:102fdc00614060000080fb00610060004700dd0084
:102fec00411680000170a10001007000401688009d
:102ffc00401680004700de00614060000080fb004e
:10300c00610060004600dd00411680000160a100f7
:10301c000100700040168800cc62a900cde2a90026
:10302c00cca2a800cca2a8001e00fb006800600087
:10303c0000f0a7000000ea000000ea004f00de00ec
:10304c00004078000080fb00610060004900dd005a
:10305c00611680000190a1000100700060168800cc
:10306c001e00fb006400600000f0a7000000ea00f6
:10307c000000ea004f00de00004078000080fb00fa
:10308c00610060004800dd00611680000180a10035
:10309c0001007000601688001e00fb0062006000da
:1030ac0000f0a7000000ea000000ea004f00de007c
:1030bc00004078000080fb00610060004700dd00ec
:1030cc00611680000170a10001007000601688007c
:1030dc001e4078006140600061406000614060000b
:1030ec000080fb00610060004600dd00611680007e
:1030fc000160a1000100700060168800cca2a9003c
:10310c000080fa00000006000000fa00e00807004a
:10311c000040780023e8b700dd0807000040780085
:10312c0028e8b7002468ef009efd07000080fa0035
:10313c00000006000000fa00c8c2a800c8e2a800ff
:10314c00c902a800c922a80021c8bf000000fb00ca
:10315c00e30f5000f5003200e30f500007003c0075
:10316c00e10f50005f003200e10f5000a6003c0060
:10317c000000e0000600320034013700e50f50007b
:10318c0013013200e50f5000f30035002f0137001a
:10319c0040c4200010fd070028c8bf00e10807004c
:1031ac00f1e12400810f50000400360080c420009f
:1031bc001404070028c8bf00d008070040c4200032
:1031cc001040780080407800b0bb200001487800a7
:1031dc0050c420001040780080407800c0bb200014
:1031ec000148780060c420001040780080407800ce
:1031fc00d0bb20000148780090c42000104078001b
:10320c0080407800f0bb200001487800a0c420006a
:10321c00104078008040780000bc20000148780005
:10322c0010bc2000f1cdb3000148780026c8bf00c7
:10323c008080fb00c2ba2000e2c078000040e800a9
:10324c0026e8b70001407800a7fd070026c8bf009c
:10325c00f84f500001003a002668ef005182200020
:10326c009140780010c0b300f0cf500001003e0038
:10327c000040eb008140e800814178005282200040
:10328c00034978000004e0000900320030c0b300ac
:10329c0021e8b70023c8bf009808070010062000db
:1032ac003cff070011c0b3000040eb0052fd0700cb
:1032bc00b8fc070011c3b300814f500003003a0063
:1032cc0010c0b30021e8b700e0003700d3070700b7
:1032dc00e10f5000d2003a0020c0b30021e8b70043
:1032ec00da00370040c42000bbfc070028c8bf0030
:1032fc008c080700f1e12400810f50000400360017
:10330c0080c42000bf03070028c8bf007b0807004b
:10331c0040c42000104078008040780060bd200040
:10332c000148780050c4200010407800804078009c
:10333c0070bd20000148780060c420001040780067
:10334c008040780080bd20000148780090c42000a7
:10335c001040780080407800a0bd20000148780023
:10336c00a0c420001040780080407800b0bd200040
:10337c0001487800c0bd2000f1cdb30001487800b1
:10338c0026c8bf008080fb0062bc2000e2c0780031
:10339c000040e80026e8b7000140780052fd070025
:1033ac0026c8bf00f84f500001003a002668ef0015
:1033bc00518220009140780010c0b300f0cf500033
:1033cc0001003e000040eb008140e80081417800a4
:1033dc0052822000034978000004e0009200320081
:1033ec0030c0b30021e8b70023c8bf004308070072
:1033fc0010062000e7fe070011c0b3000040eb00f0
:10340c00fdfc07009100370040c4200072fc07004f
:10341c0028c8bf0043080700f1e12400810f5000c9
:10342c000400360080c420007603070028c8bf00c3
:10343c003208070040c4200010407800804078001b
:10344c00b0be20000148780050c420001040780025
:10345c0080407800c0be20000148780060c4200085
:10346c001040780080407800d0be200001487800e1
:10347c0090c420001040780080407800f0be2000fe
:10348c0001487800a0c420001040780080407800eb
:10349c0000bf20000148780010bf2000f1cdb30020
:1034ac000148780026c8bf008080fb0002be2000c7
:1034bc00e2c078000040e80026e8b7000140780040
:1034cc0009fd070026c8bf00f84f500001003a0064
:1034dc002668ef00518220009140780010c0b300a4
:1034ec00f0cf500001003e000040eb008140e800ae
:1034fc008141780052822000034978000004e000ea
:10350c004b00320030c0b30021e8b70023c8bf0025
:10351c00fa070700100620009efe070011c0b3003a
:10352c000040eb00b4fc07004800370023c8bf0084
:10353c00fc070700411f2000810f50003e003600a1
:10354c0023c8bf00ed0707002568ef0040c0b3009b
:10355c0021e8b7003d00370017fc07000040780059
:10356c00aae8b700aac8bf000080fb000000e90071
:10357c00a1bf200002c2b3008270780025c8bf0032
:10358c008080fb00a2bf2000e2c078000040e80071
:10359c0025e8b70001407800d3fc070025c8bf0020
:1035ac00f04f50000400360050c0b30021e8b700c3
:1035bc0023c8bf00d1070700aac8bf000004e00061
:1035cc001f003a0000b32100000001001f0037006b
:1035dc0023c8bf00d3070700319c2000810f500087
:1035ec001900360024c8bf000040e80024e8b700ea
:1035fc0024c8bf00f84f500001003a002468ef00c7
:10360c002168ef008040eb000040eb007afc0700e3
:10361c0024c8bf0026e8b7002568ef000b00370070
:10362c000000000009003700000000000700370010
:10363c000000000005003700000000000300370008
:10364c000000000001003700000000000080fa00bc
:10365c00000006000000fa002568ef0008003700a3
:10366c0025c8bf000080fb00a1bf200000c1eb00fb
:10367c008270780025c8bf000040e80025e8b7003c
:10368c0025c8bf00f04f5000f5ff36000080fa004f
:10369c00000006000400fa00000f780011079800e3
:1036ac009e009000803e200000017800110009006f
:1036bc008200d800804078001e0078000148780015
:1036cc001e007800104078008000fb0080c12f00a5
:1036dc000088b900000078009e0090000080400037
:1036ec00100798009e01e8001e019000b0472100d1
:1036fc000090b900c388de004f90de0000805000bf
:10370c0000407800804978001e00e80010407800e6
:10371c008000fb00c0f92f000088b9000000780081
:10372c009e00900000804000100798009e81e800e9
:10373c001e019000706626000090b900c288de0061
:10374c004f90de00008050000040780080497800e7
:10375c001e80e800104078008000fb0060ff2f0006
:10376c000088b900000078009e00900000804000a6
:10377c00100798009e007800638040009e00900027
:10378c00814078000143b000014878001e017800a8
:10379c00640041008040eb00014878001e80e80086
:1037ac009e80e800914078000143b0000148780009
:1037bc001e00e8009e00e800914078000143b00034
:1037cc00014878001e00780001c2b300014878005f
:1037dc000080fa00000006000000fa002c07070029
:1037ec00004078004ce8b700c022a900c422a90010
:1037fc000080fa00000006000000fa0051c8bf006b
:10380c000000fb00e20f500015003200e20f5000e8
:10381c0003003c000000e000060032003f003700cf
:10382c00e30f50001c003200e60f5000270032005e
:10383c003a003700204280000000e00030003400e5
:10384c004cc8bf002d0707004828ef007628ef0072
:10385c00c422a80020c0b30051e8b7002f003700e5
:10386c004cc8bf002f070700c1438000810f5000d8
:10387c0025003600404280000000e80040428800ed
:10388c00c422a9004cc8bf001c07070030c0b300fd
:10389c0051e8b700210037004cc8bf0021070700d2
:1038ac00c1438000810f500019003600c422a800cb
:1038bc004cc8bf001107070020d5210000000100f3
:1038cc0060c0b30051e8b7001400370041428000db
:1038dc00a0438000808f5000020035004428ef0088
:1038ec005168ef0041428000a0438000808f50005f
:1038fc0009003d0020c0b30051e8b70007003700b5
:10390c000000000005003700000000000300370035
:10391c000000000001003700000000000080fa00e9
:10392c00000006000000fa0050c8bf000000fb00b9
:10393c00e20f500015003200e20f500003003c0073
:10394c000000e0000600320031003700e30f5000a9
:10395c001b003200e60f5000250032002c0037000f
:10396c00304280000000e000240034004cc8bf004e
:10397c00e20607004828ef007628ef00c422a800d2
:10398c0020c0b30050e8b700210037004cc8bf007e
:10399c00e4060700e50f50001a0036004042800094
:1039ac000000e80040428800c422a9004cc8bf00b7
:1039bc00d206070030c0b30050e8b700140037003f
:1039cc004cc8bf00d7060700ea0f50000f003600a6
:1039dc00c422a8004cc8bf00c806070020d521008f
:1039ec000000010060c0b30050e8b70008003700c9
:1039fc005068ef00000000000500370000000000d8
:103a0c000300370000000000010037000000000038
:103a1c000080fa00000006000400fa00100798006d
:103a2c0066070700000f78001e0078006707070084
:103a3c00a04388009e009000214288001e00900048
:103a4c00e10f500003003a0010002000c043880032
:103a5c000200370030002000c04388000080fa00cc
:103a6c00000006000000fa00204280000080fa00ee
:103a7c00000006000200fa00000f7800b04380003e
:103a8c0052070700a04388009e007800314288004e
:103a9c000080fa00000006000200fa004707070049
:103aac00000f780020428000e10f500031003a00f6
:103abc00a2438000605525000090b9004f91de00b4
:103acc008280500040428000808f50000300340000
:103adc0050002000c043880095003700a2438000ae
:103aec00605525000090b9004f91de008280500097
:103afc0040428000808f50000d003c00a2438000ab
:103b0c00605525000090b9004f91de0002805000f6
:103b1c00000040008000780040428000808f500000
:103b2c000300350040002000c043880080003700af
:103b3c00a2438000605525000090b9004f91de0033
:103b4c00028050000000400080007800404280005d
:103b5c00808f50006f003d0041428000a0438000e8
:103b6c00808f50006d003d0030002000c043880065
:103b7c006f00370020428000e20f500031003a0005
:103b8c00a2438000605525000090b9004f91de00e3
:103b9c008280500040428000808f5000030034002f
:103bac0010002000c043880061003700a243800051
:103bbc00605525000090b9004f91de0082805000c6
:103bcc0040428000808f50000d003c00a2438000da
:103bdc00605525000090b9004f91de000280500026
:103bec00000040008000780040428000808f500030
:103bfc000300350030002000c04388004c00370023
:103c0c00a2438000605525000090b9004f91de0062
:103c1c00028050000000400080007800404280008c
:103c2c00808f50003f003d0041428000a043800047
:103c3c00808f50003d003d0050002000c0438800a4
:103c4c003b00370020428000e40f500038003a005f
:103c5c00a2438000605525000090b9004f91de0012
:103c6c008280500040428000808f5000030034005e
:103c7c0050002000c04388002d003700a243800074
:103c8c00605525000090b9004f91de0082805000f5
:103c9c0040428000808f50000d003c00a243800009
:103cac00605525000090b9004f91de000280500055
:103cbc00000040008000780040428000808f50005f
:103ccc000300350070002000c04388001800370046
:103cdc00a2438000605525000090b9004f91de0092
:103cec0002805000000040008000780040428000bc
:103cfc00808f50000e003d0041428000a0438000a8
:103d0c00808f50000a003d0090002000c0438800c6
:103d1c00070037000000000005003700000000001d
:103d2c000300370000000000010037000000000015
:103d3c000080fa00000006000000fa002d83a800a5
:103d4c00d30507000040780056e8b700d0050700ff
:103d5c000040780057e8b700c962a900c982a800e2
:103d6c00c942a900cd42a90056c8bf00e30507000f
:103d7c005c28ef005828ef005a28ef000080fa006a
:103d8c00000006000000fa0060c8bf000000fb0045
:103d9c00e30f500030003200e30f500007003c00ee
:103dac00e10f500016003200e10f50001a003c00e9
:103dbc000000e0000a0032005f003700e50f500001
:103dcc0034003200e50f50002b003500e60f500098
:103ddc0044003200e70f50004a0032005600370012
:103dec00cd42a9005c28ef005828ef0010c0b300aa
:103dfc0060e8b70056c8bf00c00507004e0037008a
:103e0c00cd62a90057c8bf00bc05070020c0b30095
:103e1c0060e8b7004800370057c8bf00c10507006d
:103e2c00e10f50003f00360030c0b30060e8b7002f
:103e3c0057c8bf00b1050700501680004c00de00cb
:103e4c00614060008080fb00e04280000080400008
:103e5c00e04288003800370057c8bf00b1050700a2
:103e6c00e10f50000400360040c0b30060e8b7001a
:103e7c0057c8bf00a1050700cd62a800c042800052
:103e8c000000e800c042880050c0b30060e8b700f2
:103e9c002900370057c8bf00a2050700e30f5000e8
:103eac0022003600c0428000e80f50000a003c009f
:103ebc00e042800000004000e0428800e1428000c7
:103ecc00e00f200000806000e042880010c0b300ca
:103edc0060e8b7001800370060c0b30060e8b700b6
:103eec0015003700cd42a800e1428000f03f2000d1
:103efc0000806000e042880070c0b30060e8b7004a
:103f0c000d003700cd62a80056c8bf00850507001c
:103f1c0001532700810f5000060036006068ef0047
:103f2c00050037000000000003003700000000000f
:103f3c0001003700000000000080fa0000000600bd
:103f4c000400fa00000f7800110798001e00900082
:103f5c00cf80de00c200200003002000820f500042
:103f6c00838f58005a003e00006001000c0037009f
:103f7c0011003700160037001b00370020003700f7
:103f8c00250037002a0037002f0037003500370096
:103f9c00380037003d00370042003700480037003a
:103fac001e007800c800dd00e04280000080400068
:103fbc00e0428800460037001e007800c700dd0094
:103fcc00e042800000804000e04288004000370062
:103fdc001e007800c600dd00e0428000008040003a
:103fec00e04288003a0037001e007800c500dd0072
:103ffc00e042800000804000e0428800340037003e
:10400c001e007800c400dd00e0428000008040000b
:10401c00e04288002e0037001e007800c300dd004f
:10402c00e042800000804000e04288002800370019
:10403c001e007800c200dd00e042800000804000dd
:10404c00e0428800220037001e007800000040008b
:10405c0080007800e042800000804000e042880050
:10406c001b003700e04280001e004000e042880048
:10407c00170037001e007800c300dd00e04280000e
:10408c0000804000e0428800110037001e007800dc
:10409c00c200dd00e042800000804000e042880069
:1040ac000b0037001e0078000000400080007800f4
:1040bc00e042800000804000e042880004003700ad
:1040cc00e04280001e004000e0428800000000003a
:1040dc000080fa00000006000400fa00000f7800cf
:1040ec00110798001e019000b04721000090b90004
:1040fc00c388de004f90de000080500080407800c6
:10410c001e007800014878001e00780010407800ee
:10411c008000fb00c0f92f000088b9000000780077
:10412c009e00900000804000100798009e01e8005f
:10413c001e019000706626000090b900c288de0057
:10414c004f90de00008050000040780080497800dd
:10415c001e00e800104078008000fb0060ff2f007c
:10416c000088b900000078009e009000008040009c
:10417c00100798001e80e8009e0090008140780097
:10418c00014878001e80e800104078000000fb0019
:10419c009e00900000805000100798009e00780050
:1041ac00638040008040eb00014878009e0078005e
:1041bc00648040008040eb00014878001e80e800dd
:1041cc009e80e800914078000143b00001487800df
:1041dc001e00e8009e00e800914078000143b0000a
:1041ec00014878001e007800104078000043b000b1
:1041fc00804078001e007800014878000080fa00aa
:10420c00000006000200fa00000f7800e042800077
:10421c00800078001e007800afff07000080fa00d5
:10422c00000006000000fa00990407000040780026
:10423c0092e8b700c062a800c042a800c9a2a800ba
:10424c00c8c2a900c8e2a900c902a900c922a900d4
:10425c000080fa00000006000000fa00c8c2a900a5
:10426c00c8e2a900c902a900c922a9008ec8bf00d2
:10427c000000fb00e20f500024003200e20f50005f
:10428c0005003c000000e00008003200e10f500087
:10429c000b00320053003700e30f500026003200b1
:1042ac00e40f50003d0032004e003700100020009b
:1042bc00b044880010c0b3008ee8b7004900370046
:1042cc00530007000000e00008003a00002f220015
:1042dc0000000100b044800000004000b0448800a1
:1042ec0020c0b3008ee8b7003e003700480007003e
:1042fc000000e0003200320092c8bf007f040700cb
:10430c0030c0b3008ee8b70036003700b0448000f0
:10431c00e80f500003003e0010c0b3008ee8b70059
:10432c0030003700b0448000e80f50002600360003
:10433c008e68ef002b00370092c8bf00790407008d
:10434c00311f2000810f50000a003600300007009a
:10435c000000e000070032004a000700004078002f
:10436c0098e8b70040c0b3008ee8b700000000002a
:10437c001c00370092c8bf006a040700311f2000e0
:10438c00810f500012003600210007000000e000f1
:10439c0011003a008e68ef00120037001c00070075
:1043ac000000e0000e003a0098c8bf0099e8b70082
:1043bc0010002000804488008e68ef000900370050
:1043cc000000000007003700000000000500370067
:1043dc00000000000300370000000000010037005f
:1043ec00000000000080fa00000006000000fa0047
:1043fc00804480000080fa00000006000000fa00f3
:10440c009028ef0099c8bf000080fa000000060059
:10441c000000fa0010168000640060000000e0004c
:10442c000400320010002000a0448800100020007e
:10443c00120037005116800000002200008060003e
:10444c000000e0000400320020002000a04488009e
:10445c001000200009003700101680006800600072
:10446c000000e0000400320040002000a04488005e
:10447c0010002000010037000000eb000080fa0063
:10448c00000006000200fa00a0448000e10f50007a
:10449c0018003a00b0448000e10f500003003a00cd
:1044ac00a0c2b300004f780047003700b044800032
:1044bc00e20f500003003a0010c3b300004f780025
:1044cc0041003700b0448000e40f500003003a0074
:1044dc0040c3b300004f78003b003700b04480006d
:1044ec00e80f500038003a0070c3b300004f78005a
:1044fc0035003700a0448000e20f500018003a004d
:10450c00b0448000e10f500003003a0000c3b30038
:10451c00004f78002c003700b0448000e20f5000b0
:10452c0003003a0020c3b300004f78002600370088
:10453c00b0448000e40f500003003a0050c3b300b5
:10454c00004f780020003700b0448000e80f500086
:10455c001d003a0080c3b300004f78001a003700ea
:10456c00a0448000e40f500017003a00b0448000d3
:10457c00e10f500003003a0030c2b300004f780046
:10458c0011003700b0448000e20f500003003a00e5
:10459c0030c3b300004f78000b003700b0448000ec
:1045ac00e40f500003003a0060c3b300004f7800e2
:1045bc0005003700b0448000e80f500002003a00bc
:1045cc0090c3b300004f78001e00fb000080fa007f
:1045dc00000006000000fa00b0448000e10f50001b
:1045ec0005003a00ccc2a800cce2a900cd02a9007b
:1045fc00cd22a90017003700b0448000e20f500014
:10460c0005003a00ccc2a900cce2a800cd02a9005a
:10461c00cd22a9000f003700b0448000e40f5000f9
:10462c0005003a00ccc2a900cce2a900cd02a8003a
:10463c00cd22a90007003700b0448000e80f5000dd
:10464c0004003a00ccc2a900cce2a900cd02a9001a
:10465c00cd22a8000080fa00000006000000fa003d
:10466c00113a8000f00b20000081600060042000f3
:10467c00710520002374200080497800814978005e
:10468c00824978001136800000fe2f000080600007
:10469c003000b300103688002135800000fe2f005a
:1046ac00008060000020a00020358800103a8000b7
:1046bc00000178000260a000600420007105200059
:1046cc002374200080497800814978008249780061
:1046dc00700620004011880021e2a8000111800022
:1046ec00f0cf2f0000806000001188002062a9002c
:1046fc000111800090ff2f000080600000118800e5
:10470c002002a9002342a8006868ef009560a80069
:10471c006468ef0064c8bf0065e8b70065c8bf00f7
:10472c0062e8b70062c8bf0063e8b70063c8bf00a7
:10473c0066e8b70066c8bf0067e8b7000080fa00fb
:10474c00000006000000fa0068c8bf000000fb0073
:10475c00e10f500010003200e10f500003003c004c
:10476c000000e000060032002b003700e20f500082
:10477c000e003200e30f5000150032002600370007
:10478c0067c8bf000004e0002000320010c0b30076
:10479c0068e8b7002000370060000700504388002d
:1047ac0020c0b30068e8b7001b00370050438000fe
:1047bc00104078000004e0000300320030c0b30069
:1047cc0068e8b700140037006868ef001200370083
:1047dc001111800000102000008060000000e0003b
:1047ec000c00320050438000904078008100fb00a8
:1047fc00211188000000e800504388002342a800e3
:10480c0020c0b30068e8b7000300370000000000c8
:10481c0001003700000000000080fa0000000600d4
:10482c000200fa00000f7800040037001e00780028
:10483c00104078001e0fe800150007001e007800dd
:10484c00104078000004e000f8ff3a000080fa0005
:10485c00000006000200fa00000f78001e0078002d
:10486c00190007000080fa00000006000000fa00a2
:10487c0066c8bf000080fb000080fa000000060044
:10488c000000fa004e0007000080fa00000006004d
:10489c000200fa00004f7800010037000060fe00b3
:1048ac001111800000102000008060000000e0006a
:1048bc00faff32001e00fb00201188002342a800e2
:1048cc000080fa00000006000200fa00000f7800d9
:1048dc0062c8bf008080fb000181400081a42000e1
:1048ec00810041009e0878000040e80062e8b700b3
:1048fc00218620009140780000c8b30080cf500082
:10490c0001003a006268ef0067c8bf000040e80091
:10491c0067e8b7000080fa00000006000200fa0009
:10492c0064c8bf008080fb000181400081a420008e
:10493c0081004100110f78000040e80064e8b700e6
:10494c00418620009140780000c8b30080cf500011
:10495c0001003a006468ef0067c8bf000040e9003e
:10496c0067e8b7001e0078000080fa00000006001f
:10497c000200fa00004f780063c8bf008080fb0083
:10498c0082a020009e41780003f178000040e800ee
:10499c0063e8b700318620009140780000c4b30072
:1049ac0080cf500001003a006368ef0066c8bf007a
:1049bc000040e80066e8b7000080fa00000006003e
:1049cc000200fa0065c8bf008080fb0082a02000b6
:1049dc0062cf78000040e80065e8b70051862000ff
:1049ec009140780000c4b30080cf500001003a0021
:1049fc006568ef0066c8bf000040e90066e8b700d4
:104a0c001e4078000080fa00000006000000fa004a
:104a1c00c062a800c042a8006bc0a8006ba0a80090
:104a2c00a268ef009a02070000407800a3e8b700e4
:104a3c000080fa00000006000000fa00a2c8bf00c7
:104a4c000000fb00e30f500053003200e30f500056
:104a5c0007003c00e10f500020003200e10f500035
:104a6c002c003c000000e0000a003200b3003700cc
:104a7c00e50f500063003200e50f50005a0035007e
:104a8c00e60f50006d003200e70f50008c00320032
:104a9c00aa00370010168000680060000000e000db
:104aac0005003a00a3c8bf009402070010c0b30071
:104abc00a2e8b700a1003700101680006400600067
:104acc000000e00092003a00a3c8bf008b02070070
:104adc0050c0b300a2e8b70098003700a3c8bf00cd
:104aec009002070031062000810f50008a0036002a
:104afc0010168000680060000000e00003003a001f
:104b0c0020c0b300a2e8b7008c003700a268ef0009
:104b1c008a003700b80307000004e0000d003a00db
:104b2c00a6020700a4e8b700a4c8bf00ea4f5000d3
:104b3c0003003a0010c0b300a402070005003700c0
:104b4c00a4c8bf000040e800a4e8b700a4c8bf0098
:104b5c009e020700b30307000004e0000b003a00bc
:104b6c0069030700a4e8b700a4c8bf000004e00074
:104b7c0003003a0040c1b30067030700030037008d
:104b8c00a4c8bf00654050006303070030c0b300e9
:104b9c00a2e8b70069003700a3c8bf006102070094
:104bac00f17c2000810f5000060036008e020700b9
:104bbc000004e00001003200bd020700a3c8bf00e2
:104bcc004e02070010168000680060000000e00034
:104bdc005300320040c0b300a2e8b700a3c8bf0026
:104bec004602070055003700a3c8bf004d0207005e
:104bfc0031062000810f50004b003600a268ef00f8
:104c0c004e003700a3c8bf00460207003106200043
:104c1c00810f5000460036001016800064006000c2
:104c2c000000e00003003a0060c0b300a2e8b70047
:104c3c0042003700a268ef00400037006e03070007
:104c4c000004e0000d003a005c020700a4e8b70085
:104c5c00a4c8bf00e14f500003003a00a0c0b3004d
:104c6c005a02070005003700a4c8bf000040e90045
:104c7c00a4e8b700a4c8bf005402070069030700ea
:104c8c000004e0000b003a001f030700a4e8b70083
:104c9c00a4c8bf00f44f500003003a000040eb00e2
:104cac001d03070003003700a4c8bf006540400087
:104cbc001903070070c0b300a2e8b7001f0037004b
:104ccc00a3c8bf0017020700f17c2000810f500021
:104cdc0006003600440207000004e00001003a0020
:104cec0073020700a3c8bf0004020700101680005f
:104cfc00640060000000e0000f00320040c0b30010
:104d0c00a2e8b700a3c8bf00fc0107000b003700e6
:104d1c000000000009003700000000000700370009
:104d2c000000000005003700000000000300370001
:104d3c000000000001003700000000000080fa00b5
:104d4c00000006000000fa001016800068006000e9
:104d5c0000f0a7000000ea000000ea004f00de00af
:104d6c00004078000080fa00000006000000fa0005
:104d7c00101680006400600000f0a7000000ea003c
:104d8c000000ea004f00de00004078000080fa00ce
:044d9c00000006000d
:020000040000fa
:104da000480b000064000000000000009a080000aa
:104db00004000000000000007c0800000600000065
:104dc0000000000082080000060000000000000053
:104dd0009e0800000400000000000000a20800007f
:104de0000400000000000000a6080000040000000d
:104df00000000000080a0000400100000000000060
:104e0000620800000a00000000000000ac0b000077
:104e10005e000000020000004d454e00552050008d
:104e200052494e0043495000414c2d003030300073
:104e30002d30300020432000200045005350450015
:104e400052414e0054204100504f530054412d0018
:104e5000303030002d20200020432000004a550033
:104e600047414e00542e2e002e202d0030303000b1
:104e70002d202000204320002020200020200000a2
:104e8000ffffff00ffffff00ffffff00ffffff002e
:104e9000ffffff00ff0000000a0c000052000000ae
:104ea000000000001c0800001600000000000000c8
:104eb000aa08000004000000020000001100010028
:104ec00000000000b00800005801000000000000d1
:104ed000000800001c00000000000000880800001e
:104ee00006000000020000001100010000010000a7
:104ef0008e0800000600000000000000940800007a
:104f00000600000002000000ffff01000031310038
:104f10005c0c00004a00000002000000001a0300c0
:104f2000230c1c00071d120016091f000e1401009f
:104f300021101800050a1700081e0b00240d1b0085
:104f4000062211001902150004130f0020000000b2
:104f5000010001000001000001000100000100004b
:104f6000010001000001000001000100000100003b
:104f7000010001000001000001000100000100002b
:104f8000a60c00004a0000000000000032080000eb
:104f900010000000000000006c0800000800000085
:104fa00002000000a000280000010000cc5b00000f
:104fb000420800001000000000000000740800001b
:104fc0000800000002000000881302000008000032
:104fd00004000000f00c00000400000000000000cd
:104fe000520800001000000000000000ae080000a1
:104ff0000200000002000000102700000000000076
:020000040000fa
:105000000200fa00250107000040780038e8b700e8
:10501000c082a900c482a8003a28ef003e28ef0011
:105020000000eb00000f78000a0037001e00780037
:10503000c200dd00d05a2000808040001e007800b1
:105040000001400060ca2000000041000108780013
:105050001e0fe800400220009e007800808f500064
:10506000f2ff34000080fa00000006000000fa00a1
:10507000a0418000e10f500014003200e10f500009
:1050800003003c000000e000060032004100370051
:10509000e20f50001b003200e30f500024003200ea
:1050a0003c00370090418000e10f500032003a0090
:1050b00038c8bf0014010700c482a8003628ef00da
:1050c00010002000a04188003200370038c8bf001f
:1050d0001701070081438000810f5000280039002c
:1050e000b04180000000e800b041880038c8bf002f
:1050f00005010700c482a90020002000a04188000b
:105100002400370038c8bf00090107007143800040
:10511000810f50001c003600c482a80038c8bf00b0
:10512000f900070030002000a04188001900370076
:10513000b141800060438000808f50000400350042
:105140003228ef003a28ef003428ef001100370032
:10515000b141800060438000808f50000c003d0012
:10516000c482a80038c8bf00e70007001000200074
:10517000a04188000700370000000000050037004c
:1051800000000000030037000000000001003700ad
:10519000000000000080fa00000006000200fa0093
:1051a000000f7800f04180001e0040008000e90000
:1051b0005002200000017800110009008200d80090
:1051c0008000fd00c1c52000614078000080fb0028
:1051d000e04188001e0078008000400060ca200086
:1051e000008040001000780060438800100020001c
:1051f0009041880010002000d0418800f0418000dc
:105200009e004000500220000001780011000900bb
:105210008200d8008000fd00f0418800e04180005d
:105220000080fa00000006000000fa0090418000b3
:105230000080fa00000006000000fa00c082a90009
:10524000c482a90095000700004078007ce8b70000
:105250007d68ef007e68ef008028ef000080fa0094
:10526000000006000000fa007dc8bf000080fb00bf
:10527000e10f500017003200e10f500003003c0026
:105280000000e0000600320067003700e20f500027
:105290002c003200e30f500037003200620037006c
:1052a0007cc8bf00a2000700e18720009140780081
:1052b0008180fb00810f50004c0039007cc8bf008a
:1052c0009100070010c0b3007de8b700c482a900b8
:1052d000550037007cc8bf0095000700e18720001b
:1052e000914078008180fb00f4801000810f500015
:1052f000400039007cc8bf00830007007d68ef00d4
:10530000c482a800004480000000e8000044880037
:1053100000448000e40f500038003a007ec8bf000f
:105320000040e8007ee8b7008028ef007ec8bf009c
:10533000f44f500033003a0020c0b3007de8b700be
:10534000390037007cc8bf0079000700e1872000e2
:10535000914078008180fb00810f50002b003900c4
:105360007cc8bf006800070030c0b3007de8b7000c
:10537000c482a9002c0037007cc8bf006c00070065
:10538000e1872000914078008180fb00f4801000cc
:10539000810f50001f0039007cc8bf005a00070071
:1053a00020c0b3007de8b700c482a800004480009c
:1053b0000000e8000044880000448000e40f500032
:1053c00016003a007ec8bf000040e9007ee8b70042
:1053d0008028ef007ec8bf000004e00011003a0002
:1053e0007d68ef007e68ef000f00370000000000ce
:1053f0000d003700000000000b0037000000000027
:10540000090037000000000007003700000000001e
:105410000500370000000000030037000000000016
:1054200001003700000000000080fa0000000600c4
:105430000000fa000080fa00000006000200fa00f6
:105440000040eb00004f7800070037001e80fb0093
:10545000c200dd00a0b42000008040008040eb00ce
:10546000014878001e4fe8001e407800f84f5000b9
:10547000f6ff36009a28ef0004a1a9000481a800d5
:10548000800c20001008880005e1a8008460a900b5
:105490009460a8000080fa00000006000200fa00f4
:1054a0000040eb00004f7800060037001e4fe80078
:1054b0001e407800f94f500002003a000080eb00d7
:1054c0000f0037001e80fb004200dd008080e800f6
:1054d00080b420000080400010407800e14f500070
:1054e000f2ff32001e80fb00c200dd00a0b42000ed
:1054f0000080400011c0b300014878001e80fb000e
:105500000080fa00000006000200fa00004f780058
:105510001e80fb00d14480004201dd0080b42000e9
:1055200000004100010878000080fa000000060039
:105530000400fa0020479800d0448000000f780053
:105540009e0078002e4090000080fb004201dd00ac
:1055500080b420000000410010007800008050005e
:105560000080fa00000006000200fa00004f7800f8
:105570001e80fb00c200dd00a0b4200000804000bf
:105580008040eb00014878000080fa00000006002f
:105590000000fa000080fa00000006000000fa0097
:1055a000c022a900c422a900bcff07000040780067
:1055b0009ee8b7009f68ef0010c0b300a0e8b700f6
:1055c0000080fa00000006000000fa00a0c8bf003a
:1055d0000080fa00000006000200fa00004f780088
:1055e0001e417800018a2000824878000080fa007d
:1055f000000006000000fa009fc8bf000014a200cf
:105600000080fb000000ea004f00de000040780050
:105610000080fa00000006000000fa009fc8bf00ea
:105620000000fb00e10f500011003200e20f5000bb
:105630001b0032000000e0001e003a009ec8bf00c0
:10564000bbff0700018a2000914078008100fb0029
:10565000810f5000140039009ec8bf00aaff070048
